{
	"contracts/KipuBank.sol": {
		"KipuBank": {
			"abi": [
				{
					"inputs": [
						{
							"internalType": "uint256",
							"name": "bankCap_",
							"type": "uint256"
						},
						{
							"internalType": "uint256",
							"name": "withdrawThreshold_",
							"type": "uint256"
						}
					],
					"stateMutability": "nonpayable",
					"type": "constructor"
				},
				{
					"inputs": [
						{
							"internalType": "uint256",
							"name": "attempted",
							"type": "uint256"
						},
						{
							"internalType": "uint256",
							"name": "cap",
							"type": "uint256"
						}
					],
					"name": "CapExceeded",
					"type": "error"
				},
				{
					"inputs": [],
					"name": "DirectETHNotAllowed",
					"type": "error"
				},
				{
					"inputs": [
						{
							"internalType": "uint256",
							"name": "balance",
							"type": "uint256"
						},
						{
							"internalType": "uint256",
							"name": "attempted",
							"type": "uint256"
						}
					],
					"name": "InsufficientVault",
					"type": "error"
				},
				{
					"inputs": [],
					"name": "InvalidConstructorParams",
					"type": "error"
				},
				{
					"inputs": [],
					"name": "NativeTransferFailed",
					"type": "error"
				},
				{
					"inputs": [
						{
							"internalType": "uint256",
							"name": "attempted",
							"type": "uint256"
						},
						{
							"internalType": "uint256",
							"name": "threshold",
							"type": "uint256"
						}
					],
					"name": "ThresholdExceeded",
					"type": "error"
				},
				{
					"inputs": [],
					"name": "ZeroAmount",
					"type": "error"
				},
				{
					"anonymous": false,
					"inputs": [
						{
							"indexed": true,
							"internalType": "address",
							"name": "account",
							"type": "address"
						},
						{
							"indexed": false,
							"internalType": "uint256",
							"name": "amount",
							"type": "uint256"
						},
						{
							"indexed": false,
							"internalType": "uint256",
							"name": "newBalance",
							"type": "uint256"
						},
						{
							"indexed": false,
							"internalType": "uint256",
							"name": "totalVault",
							"type": "uint256"
						}
					],
					"name": "Deposited",
					"type": "event"
				},
				{
					"anonymous": false,
					"inputs": [
						{
							"indexed": true,
							"internalType": "address",
							"name": "account",
							"type": "address"
						},
						{
							"indexed": false,
							"internalType": "uint256",
							"name": "amount",
							"type": "uint256"
						},
						{
							"indexed": false,
							"internalType": "uint256",
							"name": "newBalance",
							"type": "uint256"
						},
						{
							"indexed": false,
							"internalType": "uint256",
							"name": "totalVault",
							"type": "uint256"
						}
					],
					"name": "Withdrawn",
					"type": "event"
				},
				{
					"stateMutability": "payable",
					"type": "fallback"
				},
				{
					"inputs": [],
					"name": "bankCap",
					"outputs": [
						{
							"internalType": "uint256",
							"name": "",
							"type": "uint256"
						}
					],
					"stateMutability": "view",
					"type": "function"
				},
				{
					"inputs": [],
					"name": "deposit",
					"outputs": [],
					"stateMutability": "payable",
					"type": "function"
				},
				{
					"inputs": [],
					"name": "depositCount",
					"outputs": [
						{
							"internalType": "uint256",
							"name": "",
							"type": "uint256"
						}
					],
					"stateMutability": "view",
					"type": "function"
				},
				{
					"inputs": [],
					"name": "getConfig",
					"outputs": [
						{
							"internalType": "uint256",
							"name": "cap",
							"type": "uint256"
						},
						{
							"internalType": "uint256",
							"name": "threshold",
							"type": "uint256"
						}
					],
					"stateMutability": "view",
					"type": "function"
				},
				{
					"inputs": [],
					"name": "totalVault",
					"outputs": [
						{
							"internalType": "uint256",
							"name": "",
							"type": "uint256"
						}
					],
					"stateMutability": "view",
					"type": "function"
				},
				{
					"inputs": [
						{
							"internalType": "address",
							"name": "account",
							"type": "address"
						}
					],
					"name": "vaultOf",
					"outputs": [
						{
							"internalType": "uint256",
							"name": "balance",
							"type": "uint256"
						}
					],
					"stateMutability": "view",
					"type": "function"
				},
				{
					"inputs": [
						{
							"internalType": "uint256",
							"name": "amount",
							"type": "uint256"
						}
					],
					"name": "withdraw",
					"outputs": [],
					"stateMutability": "nonpayable",
					"type": "function"
				},
				{
					"inputs": [],
					"name": "withdrawThreshold",
					"outputs": [
						{
							"internalType": "uint256",
							"name": "",
							"type": "uint256"
						}
					],
					"stateMutability": "view",
					"type": "function"
				},
				{
					"inputs": [],
					"name": "withdrawalCount",
					"outputs": [
						{
							"internalType": "uint256",
							"name": "",
							"type": "uint256"
						}
					],
					"stateMutability": "view",
					"type": "function"
				},
				{
					"stateMutability": "payable",
					"type": "receive"
				}
			],
			"devdoc": {
				"author": "Ricardo Flor",
				"details": "Sigue el patrón checks-effects-interactions, usa errores personalizados,      maneja ETH de forma segura mediante low-level call y expone eventos claros.",
				"errors": {
					"CapExceeded(uint256,uint256)": [
						{
							"params": {
								"attempted": "Cantidad total que se intenta alcanzar (totalVault + msg.value).",
								"cap": "Límite máximo global permitido."
							}
						}
					],
					"InsufficientVault(uint256,uint256)": [
						{
							"params": {
								"attempted": "Monto solicitado.",
								"balance": "Saldo disponible del usuario."
							}
						}
					],
					"ThresholdExceeded(uint256,uint256)": [
						{
							"params": {
								"attempted": "Monto solicitado a retirar.",
								"threshold": "Umbral máximo permitido por transacción."
							}
						}
					]
				},
				"events": {
					"Deposited(address,uint256,uint256,uint256)": {
						"params": {
							"account": "Dirección del depositante.",
							"amount": "Cantidad depositada (en wei).",
							"newBalance": "Nuevo saldo del depositante (en wei) después del depósito.",
							"totalVault": "Nuevo total global en custodia (en wei) después del depósito."
						}
					},
					"Withdrawn(address,uint256,uint256,uint256)": {
						"params": {
							"account": "Dirección del que retira.",
							"amount": "Cantidad retirada (en wei).",
							"newBalance": "Nuevo saldo del usuario (en wei) después del retiro.",
							"totalVault": "Nuevo total global en custodia (en wei) después del retiro."
						}
					}
				},
				"kind": "dev",
				"methods": {
					"constructor": {
						"details": "Requiere parámetros válidos: ambos > 0 y `withdrawThreshold_ <= bankCap_`.",
						"params": {
							"bankCap_": "Límite global total de ETH en custodia (en wei).",
							"withdrawThreshold_": "Umbral máximo por retiro (en wei)."
						}
					},
					"deposit()": {
						"custom:error": "ZeroAmount si `msg.value == 0`.CapExceeded si `totalVault + msg.value > bankCap`.",
						"details": "Sigue CEI: checks (montos y cap) → effects (actualiza estado) → interactions (ninguna).      No hay interacción externa; el ETH ya está adjunto en `msg.value`."
					},
					"getConfig()": {
						"returns": {
							"cap": "Límite global del banco (wei).",
							"threshold": "Umbral fijo por retiro (wei)."
						}
					},
					"vaultOf(address)": {
						"params": {
							"account": "Dirección a consultar."
						},
						"returns": {
							"balance": "Saldo en wei."
						}
					},
					"withdraw(uint256)": {
						"custom:error": "ZeroAmount si `amount == 0`.ThresholdExceeded si `amount > withdrawThreshold`.InsufficientVault si el saldo del usuario es insuficiente.NativeTransferFailed si falla el envío de ETH.",
						"details": "Sigue CEI: checks → effects → interactions (envío nativo seguro).",
						"params": {
							"amount": "Monto a retirar (en wei)."
						}
					}
				},
				"stateVariables": {
					"bankCap": {
						"details": "Fijado en el despliegue; no puede cambiarse."
					},
					"totalVault": {
						"details": "Se actualiza en depósitos y retiros; se prefiere a `address(this).balance`      para evitar desalineaciones ante envíos forzados."
					},
					"withdrawThreshold": {
						"details": "Fijado en el despliegue; no puede cambiarse."
					}
				},
				"title": "KipuBank",
				"version": 1
			},
			"evm": {
				"assembly": "    /* \"contracts/KipuBank.sol\":424:9971  contract KipuBank {... */\n  mstore(0x40, 0xc0)\n    /* \"contracts/KipuBank.sol\":5471:5758  constructor(uint256 bankCap_, uint256 withdrawThreshold_) {... */\n  callvalue\n  dup1\n  iszero\n  tag_1\n  jumpi\n  revert(0x00, 0x00)\ntag_1:\n  pop\n  mload(0x40)\n  sub(codesize, bytecodeSize)\n  dup1\n  bytecodeSize\n  dup4\n  codecopy\n  dup2\n  dup2\n  add\n  0x40\n  mstore\n  dup2\n  add\n  swap1\n  tag_2\n  swap2\n  swap1\n  tag_3\n  jump\t// in\ntag_2:\n    /* \"contracts/KipuBank.sol\":5555:5556  0 */\n  0x00\n    /* \"contracts/KipuBank.sol\":5543:5551  bankCap_ */\n  dup3\n    /* \"contracts/KipuBank.sol\":5543:5556  bankCap_ == 0 */\n  eq\n    /* \"contracts/KipuBank.sol\":5543:5583  bankCap_ == 0 || withdrawThreshold_ == 0 */\n  dup1\n  tag_6\n  jumpi\n  pop\n    /* \"contracts/KipuBank.sol\":5582:5583  0 */\n  0x00\n    /* \"contracts/KipuBank.sol\":5560:5578  withdrawThreshold_ */\n  dup2\n    /* \"contracts/KipuBank.sol\":5560:5583  withdrawThreshold_ == 0 */\n  eq\n    /* \"contracts/KipuBank.sol\":5543:5583  bankCap_ == 0 || withdrawThreshold_ == 0 */\ntag_6:\n    /* \"contracts/KipuBank.sol\":5543:5616  bankCap_ == 0 || withdrawThreshold_ == 0 || withdrawThreshold_ > bankCap_ */\n  dup1\n  tag_7\n  jumpi\n  pop\n    /* \"contracts/KipuBank.sol\":5608:5616  bankCap_ */\n  dup2\n    /* \"contracts/KipuBank.sol\":5587:5605  withdrawThreshold_ */\n  dup2\n    /* \"contracts/KipuBank.sol\":5587:5616  withdrawThreshold_ > bankCap_ */\n  gt\n    /* \"contracts/KipuBank.sol\":5543:5616  bankCap_ == 0 || withdrawThreshold_ == 0 || withdrawThreshold_ > bankCap_ */\ntag_7:\n    /* \"contracts/KipuBank.sol\":5539:5676  if (bankCap_ == 0 || withdrawThreshold_ == 0 || withdrawThreshold_ > bankCap_) {... */\n  iszero\n  tag_8\n  jumpi\n    /* \"contracts/KipuBank.sol\":5639:5665  InvalidConstructorParams() */\n  mload(0x40)\n  0x1510b77f00000000000000000000000000000000000000000000000000000000\n  dup2\n  mstore\n  0x04\n  add\n  mload(0x40)\n  dup1\n  swap2\n  sub\n  swap1\n  revert\n    /* \"contracts/KipuBank.sol\":5539:5676  if (bankCap_ == 0 || withdrawThreshold_ == 0 || withdrawThreshold_ > bankCap_) {... */\ntag_8:\n    /* \"contracts/KipuBank.sol\":5695:5703  bankCap_ */\n  dup2\n    /* \"contracts/KipuBank.sol\":5685:5703  bankCap = bankCap_ */\n  0x80\n  dup2\n  dup2\n  mstore\n  pop\n  pop\n    /* \"contracts/KipuBank.sol\":5733:5751  withdrawThreshold_ */\n  dup1\n    /* \"contracts/KipuBank.sol\":5713:5751  withdrawThreshold = withdrawThreshold_ */\n  0xa0\n  dup2\n  dup2\n  mstore\n  pop\n  pop\n    /* \"contracts/KipuBank.sol\":5471:5758  constructor(uint256 bankCap_, uint256 withdrawThreshold_) {... */\n  pop\n  pop\n    /* \"contracts/KipuBank.sol\":424:9971  contract KipuBank {... */\n  jump(tag_9)\n    /* \"#utility.yul\":88:205   */\ntag_11:\n    /* \"#utility.yul\":197:198   */\n  0x00\n    /* \"#utility.yul\":194:195   */\n  0x00\n    /* \"#utility.yul\":187:199   */\n  revert\n    /* \"#utility.yul\":334:411   */\ntag_13:\n    /* \"#utility.yul\":371:378   */\n  0x00\n    /* \"#utility.yul\":400:405   */\n  dup2\n    /* \"#utility.yul\":389:405   */\n  swap1\n  pop\n    /* \"#utility.yul\":334:411   */\n  swap2\n  swap1\n  pop\n  jump\t// out\n    /* \"#utility.yul\":417:539   */\ntag_14:\n    /* \"#utility.yul\":490:514   */\n  tag_22\n    /* \"#utility.yul\":508:513   */\n  dup2\n    /* \"#utility.yul\":490:514   */\n  tag_13\n  jump\t// in\ntag_22:\n    /* \"#utility.yul\":483:488   */\n  dup2\n    /* \"#utility.yul\":480:515   */\n  eq\n    /* \"#utility.yul\":470:533   */\n  tag_23\n  jumpi\n    /* \"#utility.yul\":529:530   */\n  0x00\n    /* \"#utility.yul\":526:527   */\n  0x00\n    /* \"#utility.yul\":519:531   */\n  revert\n    /* \"#utility.yul\":470:533   */\ntag_23:\n    /* \"#utility.yul\":417:539   */\n  pop\n  jump\t// out\n    /* \"#utility.yul\":545:688   */\ntag_15:\n    /* \"#utility.yul\":602:607   */\n  0x00\n    /* \"#utility.yul\":633:639   */\n  dup2\n    /* \"#utility.yul\":627:640   */\n  mload\n    /* \"#utility.yul\":618:640   */\n  swap1\n  pop\n    /* \"#utility.yul\":649:682   */\n  tag_25\n    /* \"#utility.yul\":676:681   */\n  dup2\n    /* \"#utility.yul\":649:682   */\n  tag_14\n  jump\t// in\ntag_25:\n    /* \"#utility.yul\":545:688   */\n  swap3\n  swap2\n  pop\n  pop\n  jump\t// out\n    /* \"#utility.yul\":694:1201   */\ntag_3:\n    /* \"#utility.yul\":773:779   */\n  0x00\n    /* \"#utility.yul\":781:787   */\n  0x00\n    /* \"#utility.yul\":830:832   */\n  0x40\n    /* \"#utility.yul\":818:827   */\n  dup4\n    /* \"#utility.yul\":809:816   */\n  dup6\n    /* \"#utility.yul\":805:828   */\n  sub\n    /* \"#utility.yul\":801:833   */\n  slt\n    /* \"#utility.yul\":798:917   */\n  iszero\n  tag_27\n  jumpi\n    /* \"#utility.yul\":836:915   */\n  tag_28\n  tag_11\n  jump\t// in\ntag_28:\n    /* \"#utility.yul\":798:917   */\ntag_27:\n    /* \"#utility.yul\":956:957   */\n  0x00\n    /* \"#utility.yul\":981:1045   */\n  tag_29\n    /* \"#utility.yul\":1037:1044   */\n  dup6\n    /* \"#utility.yul\":1028:1034   */\n  dup3\n    /* \"#utility.yul\":1017:1026   */\n  dup7\n    /* \"#utility.yul\":1013:1035   */\n  add\n    /* \"#utility.yul\":981:1045   */\n  tag_15\n  jump\t// in\ntag_29:\n    /* \"#utility.yul\":971:1045   */\n  swap3\n  pop\n    /* \"#utility.yul\":927:1055   */\n  pop\n    /* \"#utility.yul\":1094:1096   */\n  0x20\n    /* \"#utility.yul\":1120:1184   */\n  tag_30\n    /* \"#utility.yul\":1176:1183   */\n  dup6\n    /* \"#utility.yul\":1167:1173   */\n  dup3\n    /* \"#utility.yul\":1156:1165   */\n  dup7\n    /* \"#utility.yul\":1152:1174   */\n  add\n    /* \"#utility.yul\":1120:1184   */\n  tag_15\n  jump\t// in\ntag_30:\n    /* \"#utility.yul\":1110:1184   */\n  swap2\n  pop\n    /* \"#utility.yul\":1065:1194   */\n  pop\n    /* \"#utility.yul\":694:1201   */\n  swap3\n  pop\n  swap3\n  swap1\n  pop\n  jump\t// out\n    /* \"contracts/KipuBank.sol\":424:9971  contract KipuBank {... */\ntag_9:\n  mload(0x80)\n  mload(0xa0)\n  codecopy(0x00, dataOffset(sub_0), dataSize(sub_0))\n  0x00\n  assignImmutable(\"0x4569971f3d79dc8da7f8a6820be6cb8dc4a52bb0df6599b2aae7182111b63cd5\")\n  0x00\n  assignImmutable(\"0x7446b42d7fe1689ec32fc1ca65129d9f21f1979742315d34500a6886f6986bea\")\n  return(0x00, dataSize(sub_0))\nstop\n\nsub_0: assembly {\n        /* \"contracts/KipuBank.sol\":424:9971  contract KipuBank {... */\n      mstore(0x40, 0x80)\n      jumpi(tag_1, lt(calldatasize, 0x04))\n      shr(0xe0, calldataload(0x00))\n      dup1\n      0x71706cbe\n      gt\n      tag_12\n      jumpi\n      dup1\n      0x71706cbe\n      eq\n      tag_7\n      jumpi\n      dup1\n      0x760ee4c6\n      eq\n      tag_8\n      jumpi\n      dup1\n      0xc3f909d4\n      eq\n      tag_9\n      jumpi\n      dup1\n      0xd0e30db0\n      eq\n      tag_10\n      jumpi\n      dup1\n      0xecbea24d\n      eq\n      tag_11\n      jumpi\n      jump(tag_2)\n    tag_12:\n      dup1\n      0x0709df45\n      eq\n      tag_3\n      jumpi\n      dup1\n      0x2dfdf0b5\n      eq\n      tag_4\n      jumpi\n      dup1\n      0x2e1a7d4d\n      eq\n      tag_5\n      jumpi\n      dup1\n      0x64fe41b3\n      eq\n      tag_6\n      jumpi\n      jump(tag_2)\n    tag_1:\n      jumpi(tag_2, calldatasize)\n        /* \"contracts/KipuBank.sol\":9693:9714  DirectETHNotAllowed() */\n      mload(0x40)\n      0x21b5d54300000000000000000000000000000000000000000000000000000000\n      dup2\n      mstore\n      0x04\n      add\n      mload(0x40)\n      dup1\n      swap2\n      sub\n      swap1\n      revert\n        /* \"contracts/KipuBank.sol\":424:9971  contract KipuBank {... */\n    tag_2:\n        /* \"contracts/KipuBank.sol\":9860:9861  0 */\n      0x00\n        /* \"contracts/KipuBank.sol\":9848:9857  msg.value */\n      callvalue\n        /* \"contracts/KipuBank.sol\":9848:9861  msg.value > 0 */\n      gt\n        /* \"contracts/KipuBank.sol\":9844:9891  if (msg.value > 0) revert DirectETHNotAllowed() */\n      iszero\n      tag_17\n      jumpi\n        /* \"contracts/KipuBank.sol\":9870:9891  DirectETHNotAllowed() */\n      mload(0x40)\n      0x21b5d54300000000000000000000000000000000000000000000000000000000\n      dup2\n      mstore\n      0x04\n      add\n      mload(0x40)\n      dup1\n      swap2\n      sub\n      swap1\n      revert\n        /* \"contracts/KipuBank.sol\":9844:9891  if (msg.value > 0) revert DirectETHNotAllowed() */\n    tag_17:\n        /* \"contracts/KipuBank.sol\":424:9971  contract KipuBank {... */\n      stop\n        /* \"contracts/KipuBank.sol\":8198:8312  function vaultOf(address account) external view returns (uint256 balance) {... */\n    tag_3:\n      callvalue\n      dup1\n      iszero\n      tag_18\n      jumpi\n      revert(0x00, 0x00)\n    tag_18:\n      pop\n      tag_19\n      0x04\n      dup1\n      calldatasize\n      sub\n      dup2\n      add\n      swap1\n      tag_20\n      swap2\n      swap1\n      tag_21\n      jump\t// in\n    tag_20:\n      tag_22\n      jump\t// in\n    tag_19:\n      mload(0x40)\n      tag_23\n      swap2\n      swap1\n      tag_24\n      jump\t// in\n    tag_23:\n      mload(0x40)\n      dup1\n      swap2\n      sub\n      swap1\n      return\n        /* \"contracts/KipuBank.sol\":3990:4017  uint256 public depositCount */\n    tag_4:\n      callvalue\n      dup1\n      iszero\n      tag_25\n      jumpi\n      revert(0x00, 0x00)\n    tag_25:\n      pop\n      tag_26\n      tag_27\n      jump\t// in\n    tag_26:\n      mload(0x40)\n      tag_28\n      swap2\n      swap1\n      tag_24\n      jump\t// in\n    tag_28:\n      mload(0x40)\n      dup1\n      swap2\n      sub\n      swap1\n      return\n        /* \"contracts/KipuBank.sol\":7295:7843  function withdraw(uint256 amount)... */\n    tag_5:\n      callvalue\n      dup1\n      iszero\n      tag_29\n      jumpi\n      revert(0x00, 0x00)\n    tag_29:\n      pop\n      tag_30\n      0x04\n      dup1\n      calldatasize\n      sub\n      dup2\n      add\n      swap1\n      tag_31\n      swap2\n      swap1\n      tag_32\n      jump\t// in\n    tag_31:\n      tag_33\n      jump\t// in\n    tag_30:\n      stop\n        /* \"contracts/KipuBank.sol\":3889:3914  uint256 public totalVault */\n    tag_6:\n      callvalue\n      dup1\n      iszero\n      tag_34\n      jumpi\n      revert(0x00, 0x00)\n    tag_34:\n      pop\n      tag_35\n      tag_36\n      jump\t// in\n    tag_35:\n      mload(0x40)\n      tag_37\n      swap2\n      swap1\n      tag_24\n      jump\t// in\n    tag_37:\n      mload(0x40)\n      dup1\n      swap2\n      sub\n      swap1\n      return\n        /* \"contracts/KipuBank.sol\":4090:4120  uint256 public withdrawalCount */\n    tag_7:\n      callvalue\n      dup1\n      iszero\n      tag_38\n      jumpi\n      revert(0x00, 0x00)\n    tag_38:\n      pop\n      tag_39\n      tag_40\n      jump\t// in\n    tag_39:\n      mload(0x40)\n      tag_41\n      swap2\n      swap1\n      tag_24\n      jump\t// in\n    tag_41:\n      mload(0x40)\n      dup1\n      swap2\n      sub\n      swap1\n      return\n        /* \"contracts/KipuBank.sol\":3399:3441  uint256 public immutable withdrawThreshold */\n    tag_8:\n      callvalue\n      dup1\n      iszero\n      tag_42\n      jumpi\n      revert(0x00, 0x00)\n    tag_42:\n      pop\n      tag_43\n      tag_44\n      jump\t// in\n    tag_43:\n      mload(0x40)\n      tag_45\n      swap2\n      swap1\n      tag_24\n      jump\t// in\n    tag_45:\n      mload(0x40)\n      dup1\n      swap2\n      sub\n      swap1\n      return\n        /* \"contracts/KipuBank.sol\":8514:8642  function getConfig() external view returns (uint256 cap, uint256 threshold) {... */\n    tag_9:\n      callvalue\n      dup1\n      iszero\n      tag_46\n      jumpi\n      revert(0x00, 0x00)\n    tag_46:\n      pop\n      tag_47\n      tag_48\n      jump\t// in\n    tag_47:\n      mload(0x40)\n      tag_49\n      swap3\n      swap2\n      swap1\n      tag_50\n      jump\t// in\n    tag_49:\n      mload(0x40)\n      dup1\n      swap2\n      sub\n      swap1\n      return\n        /* \"contracts/KipuBank.sol\":6342:6785  function deposit() external payable nonZero(msg.value) {... */\n    tag_10:\n      tag_51\n      tag_52\n      jump\t// in\n    tag_51:\n      stop\n        /* \"contracts/KipuBank.sol\":3210:3242  uint256 public immutable bankCap */\n    tag_11:\n      callvalue\n      dup1\n      iszero\n      tag_53\n      jumpi\n      revert(0x00, 0x00)\n    tag_53:\n      pop\n      tag_54\n      tag_55\n      jump\t// in\n    tag_54:\n      mload(0x40)\n      tag_56\n      swap2\n      swap1\n      tag_24\n      jump\t// in\n    tag_56:\n      mload(0x40)\n      dup1\n      swap2\n      sub\n      swap1\n      return\n        /* \"contracts/KipuBank.sol\":8198:8312  function vaultOf(address account) external view returns (uint256 balance) {... */\n    tag_22:\n        /* \"contracts/KipuBank.sol\":8255:8270  uint256 balance */\n      0x00\n        /* \"contracts/KipuBank.sol\":8289:8296  _vaults */\n      0x03\n        /* \"contracts/KipuBank.sol\":8289:8305  _vaults[account] */\n      0x00\n        /* \"contracts/KipuBank.sol\":8297:8304  account */\n      dup4\n        /* \"contracts/KipuBank.sol\":8289:8305  _vaults[account] */\n      0xffffffffffffffffffffffffffffffffffffffff\n      and\n      0xffffffffffffffffffffffffffffffffffffffff\n      and\n      dup2\n      mstore\n      0x20\n      add\n      swap1\n      dup2\n      mstore\n      0x20\n      add\n      0x00\n      keccak256\n      sload\n        /* \"contracts/KipuBank.sol\":8282:8305  return _vaults[account] */\n      swap1\n      pop\n        /* \"contracts/KipuBank.sol\":8198:8312  function vaultOf(address account) external view returns (uint256 balance) {... */\n      swap2\n      swap1\n      pop\n      jump\t// out\n        /* \"contracts/KipuBank.sol\":3990:4017  uint256 public depositCount */\n    tag_27:\n      sload(0x01)\n      dup2\n      jump\t// out\n        /* \"contracts/KipuBank.sol\":7295:7843  function withdraw(uint256 amount)... */\n    tag_33:\n        /* \"contracts/KipuBank.sol\":7362:7368  amount */\n      dup1\n        /* \"contracts/KipuBank.sol\":4601:4602  0 */\n      0x00\n        /* \"contracts/KipuBank.sol\":4591:4597  amount */\n      dup2\n        /* \"contracts/KipuBank.sol\":4591:4602  amount == 0 */\n      sub\n        /* \"contracts/KipuBank.sol\":4587:4623  if (amount == 0) revert ZeroAmount() */\n      tag_59\n      jumpi\n        /* \"contracts/KipuBank.sol\":4611:4623  ZeroAmount() */\n      mload(0x40)\n      0x1f2a200500000000000000000000000000000000000000000000000000000000\n      dup2\n      mstore\n      0x04\n      add\n      mload(0x40)\n      dup1\n      swap2\n      sub\n      swap1\n      revert\n        /* \"contracts/KipuBank.sol\":4587:4623  if (amount == 0) revert ZeroAmount() */\n    tag_59:\n        /* \"contracts/KipuBank.sol\":7393:7399  amount */\n      dup2\n        /* \"contracts/KipuBank.sol\":4853:4870  withdrawThreshold */\n      immutable(\"0x4569971f3d79dc8da7f8a6820be6cb8dc4a52bb0df6599b2aae7182111b63cd5\")\n        /* \"contracts/KipuBank.sol\":4844:4850  amount */\n      dup2\n        /* \"contracts/KipuBank.sol\":4844:4870  amount > withdrawThreshold */\n      gt\n        /* \"contracts/KipuBank.sol\":4840:4923  if (amount > withdrawThreshold) revert ThresholdExceeded(amount, withdrawThreshold) */\n      iszero\n      tag_61\n      jumpi\n        /* \"contracts/KipuBank.sol\":4897:4903  amount */\n      dup1\n        /* \"contracts/KipuBank.sol\":4905:4922  withdrawThreshold */\n      immutable(\"0x4569971f3d79dc8da7f8a6820be6cb8dc4a52bb0df6599b2aae7182111b63cd5\")\n        /* \"contracts/KipuBank.sol\":4879:4923  ThresholdExceeded(amount, withdrawThreshold) */\n      mload(0x40)\n      0xf7767ff400000000000000000000000000000000000000000000000000000000\n      dup2\n      mstore\n      0x04\n      add\n      tag_62\n      swap3\n      swap2\n      swap1\n      tag_50\n      jump\t// in\n    tag_62:\n      mload(0x40)\n      dup1\n      swap2\n      sub\n      swap1\n      revert\n        /* \"contracts/KipuBank.sol\":4840:4923  if (amount > withdrawThreshold) revert ThresholdExceeded(amount, withdrawThreshold) */\n    tag_61:\n        /* \"contracts/KipuBank.sol\":7415:7430  uint256 balance */\n      0x00\n        /* \"contracts/KipuBank.sol\":7433:7440  _vaults */\n      0x03\n        /* \"contracts/KipuBank.sol\":7433:7452  _vaults[msg.sender] */\n      0x00\n        /* \"contracts/KipuBank.sol\":7441:7451  msg.sender */\n      caller\n        /* \"contracts/KipuBank.sol\":7433:7452  _vaults[msg.sender] */\n      0xffffffffffffffffffffffffffffffffffffffff\n      and\n      0xffffffffffffffffffffffffffffffffffffffff\n      and\n      dup2\n      mstore\n      0x20\n      add\n      swap1\n      dup2\n      mstore\n      0x20\n      add\n      0x00\n      keccak256\n      sload\n        /* \"contracts/KipuBank.sol\":7415:7452  uint256 balance = _vaults[msg.sender] */\n      swap1\n      pop\n        /* \"contracts/KipuBank.sol\":7476:7482  amount */\n      dup4\n        /* \"contracts/KipuBank.sol\":7466:7473  balance */\n      dup2\n        /* \"contracts/KipuBank.sol\":7466:7482  balance < amount */\n      lt\n        /* \"contracts/KipuBank.sol\":7462:7525  if (balance < amount) revert InsufficientVault(balance, amount) */\n      iszero\n      tag_64\n      jumpi\n        /* \"contracts/KipuBank.sol\":7509:7516  balance */\n      dup1\n        /* \"contracts/KipuBank.sol\":7518:7524  amount */\n      dup5\n        /* \"contracts/KipuBank.sol\":7491:7525  InsufficientVault(balance, amount) */\n      mload(0x40)\n      0x556b850b00000000000000000000000000000000000000000000000000000000\n      dup2\n      mstore\n      0x04\n      add\n      tag_65\n      swap3\n      swap2\n      swap1\n      tag_50\n      jump\t// in\n    tag_65:\n      mload(0x40)\n      dup1\n      swap2\n      sub\n      swap1\n      revert\n        /* \"contracts/KipuBank.sol\":7462:7525  if (balance < amount) revert InsufficientVault(balance, amount) */\n    tag_64:\n        /* \"contracts/KipuBank.sol\":7611:7617  amount */\n      dup4\n        /* \"contracts/KipuBank.sol\":7601:7608  balance */\n      dup2\n        /* \"contracts/KipuBank.sol\":7601:7617  balance - amount */\n      sub\n        /* \"contracts/KipuBank.sol\":7579:7586  _vaults */\n      0x03\n        /* \"contracts/KipuBank.sol\":7579:7598  _vaults[msg.sender] */\n      0x00\n        /* \"contracts/KipuBank.sol\":7587:7597  msg.sender */\n      caller\n        /* \"contracts/KipuBank.sol\":7579:7598  _vaults[msg.sender] */\n      0xffffffffffffffffffffffffffffffffffffffff\n      and\n      0xffffffffffffffffffffffffffffffffffffffff\n      and\n      dup2\n      mstore\n      0x20\n      add\n      swap1\n      dup2\n      mstore\n      0x20\n      add\n      0x00\n      keccak256\n        /* \"contracts/KipuBank.sol\":7579:7617  _vaults[msg.sender] = balance - amount */\n      dup2\n      swap1\n      sstore\n      pop\n        /* \"contracts/KipuBank.sol\":7645:7651  amount */\n      dup4\n        /* \"contracts/KipuBank.sol\":7631:7641  totalVault */\n      0x00\n      0x00\n        /* \"contracts/KipuBank.sol\":7631:7651  totalVault -= amount */\n      dup3\n      dup3\n      sload\n      sub\n      swap3\n      pop\n      pop\n      dup2\n      swap1\n      sstore\n      pop\n        /* \"contracts/KipuBank.sol\":7684:7685  1 */\n      0x01\n        /* \"contracts/KipuBank.sol\":7665:7680  withdrawalCount */\n      0x02\n      0x00\n        /* \"contracts/KipuBank.sol\":7665:7685  withdrawalCount += 1 */\n      dup3\n      dup3\n      sload\n      add\n      swap3\n      pop\n      pop\n      dup2\n      swap1\n      sstore\n      pop\n        /* \"contracts/KipuBank.sol\":7730:7758  _sendETH(msg.sender, amount) */\n      tag_66\n        /* \"contracts/KipuBank.sol\":7739:7749  msg.sender */\n      caller\n        /* \"contracts/KipuBank.sol\":7751:7757  amount */\n      dup6\n        /* \"contracts/KipuBank.sol\":7730:7738  _sendETH */\n      tag_67\n        /* \"contracts/KipuBank.sol\":7730:7758  _sendETH(msg.sender, amount) */\n      jump\t// in\n    tag_66:\n        /* \"contracts/KipuBank.sol\":7784:7794  msg.sender */\n      caller\n        /* \"contracts/KipuBank.sol\":7774:7836  Withdrawn(msg.sender, amount, _vaults[msg.sender], totalVault) */\n      0xffffffffffffffffffffffffffffffffffffffff\n      and\n      0x75e161b3e824b114fc1a33274bd7091918dd4e639cede50b78b15a4eea956a21\n        /* \"contracts/KipuBank.sol\":7796:7802  amount */\n      dup6\n        /* \"contracts/KipuBank.sol\":7804:7811  _vaults */\n      0x03\n        /* \"contracts/KipuBank.sol\":7804:7823  _vaults[msg.sender] */\n      0x00\n        /* \"contracts/KipuBank.sol\":7812:7822  msg.sender */\n      caller\n        /* \"contracts/KipuBank.sol\":7804:7823  _vaults[msg.sender] */\n      0xffffffffffffffffffffffffffffffffffffffff\n      and\n      0xffffffffffffffffffffffffffffffffffffffff\n      and\n      dup2\n      mstore\n      0x20\n      add\n      swap1\n      dup2\n      mstore\n      0x20\n      add\n      0x00\n      keccak256\n      sload\n        /* \"contracts/KipuBank.sol\":7825:7835  totalVault */\n      sload(0x00)\n        /* \"contracts/KipuBank.sol\":7774:7836  Withdrawn(msg.sender, amount, _vaults[msg.sender], totalVault) */\n      mload(0x40)\n      tag_68\n      swap4\n      swap3\n      swap2\n      swap1\n      tag_69\n      jump\t// in\n    tag_68:\n      mload(0x40)\n      dup1\n      swap2\n      sub\n      swap1\n      log2\n        /* \"contracts/KipuBank.sol\":7405:7843  {... */\n      pop\n        /* \"contracts/KipuBank.sol\":4633:4634  _ */\n      pop\n        /* \"contracts/KipuBank.sol\":7295:7843  function withdraw(uint256 amount)... */\n      pop\n      pop\n      jump\t// out\n        /* \"contracts/KipuBank.sol\":3889:3914  uint256 public totalVault */\n    tag_36:\n      sload(0x00)\n      dup2\n      jump\t// out\n        /* \"contracts/KipuBank.sol\":4090:4120  uint256 public withdrawalCount */\n    tag_40:\n      sload(0x02)\n      dup2\n      jump\t// out\n        /* \"contracts/KipuBank.sol\":3399:3441  uint256 public immutable withdrawThreshold */\n    tag_44:\n      immutable(\"0x4569971f3d79dc8da7f8a6820be6cb8dc4a52bb0df6599b2aae7182111b63cd5\")\n      dup2\n      jump\t// out\n        /* \"contracts/KipuBank.sol\":8514:8642  function getConfig() external view returns (uint256 cap, uint256 threshold) {... */\n    tag_48:\n        /* \"contracts/KipuBank.sol\":8558:8569  uint256 cap */\n      0x00\n        /* \"contracts/KipuBank.sol\":8571:8588  uint256 threshold */\n      0x00\n        /* \"contracts/KipuBank.sol\":8608:8615  bankCap */\n      immutable(\"0x7446b42d7fe1689ec32fc1ca65129d9f21f1979742315d34500a6886f6986bea\")\n        /* \"contracts/KipuBank.sol\":8617:8634  withdrawThreshold */\n      immutable(\"0x4569971f3d79dc8da7f8a6820be6cb8dc4a52bb0df6599b2aae7182111b63cd5\")\n        /* \"contracts/KipuBank.sol\":8600:8635  return (bankCap, withdrawThreshold) */\n      swap2\n      pop\n      swap2\n      pop\n        /* \"contracts/KipuBank.sol\":8514:8642  function getConfig() external view returns (uint256 cap, uint256 threshold) {... */\n      swap1\n      swap2\n      jump\t// out\n        /* \"contracts/KipuBank.sol\":6342:6785  function deposit() external payable nonZero(msg.value) {... */\n    tag_52:\n        /* \"contracts/KipuBank.sol\":6386:6395  msg.value */\n      callvalue\n        /* \"contracts/KipuBank.sol\":4601:4602  0 */\n      0x00\n        /* \"contracts/KipuBank.sol\":4591:4597  amount */\n      dup2\n        /* \"contracts/KipuBank.sol\":4591:4602  amount == 0 */\n      sub\n        /* \"contracts/KipuBank.sol\":4587:4623  if (amount == 0) revert ZeroAmount() */\n      tag_72\n      jumpi\n        /* \"contracts/KipuBank.sol\":4611:4623  ZeroAmount() */\n      mload(0x40)\n      0x1f2a200500000000000000000000000000000000000000000000000000000000\n      dup2\n      mstore\n      0x04\n      add\n      mload(0x40)\n      dup1\n      swap2\n      sub\n      swap1\n      revert\n        /* \"contracts/KipuBank.sol\":4587:4623  if (amount == 0) revert ZeroAmount() */\n    tag_72:\n        /* \"contracts/KipuBank.sol\":6407:6423  uint256 newTotal */\n      0x00\n        /* \"contracts/KipuBank.sol\":6439:6448  msg.value */\n      callvalue\n        /* \"contracts/KipuBank.sol\":6426:6436  totalVault */\n      sload(0x00)\n        /* \"contracts/KipuBank.sol\":6426:6448  totalVault + msg.value */\n      tag_74\n      swap2\n      swap1\n      tag_75\n      jump\t// in\n    tag_74:\n        /* \"contracts/KipuBank.sol\":6407:6448  uint256 newTotal = totalVault + msg.value */\n      swap1\n      pop\n        /* \"contracts/KipuBank.sol\":6473:6480  bankCap */\n      immutable(\"0x7446b42d7fe1689ec32fc1ca65129d9f21f1979742315d34500a6886f6986bea\")\n        /* \"contracts/KipuBank.sol\":6462:6470  newTotal */\n      dup2\n        /* \"contracts/KipuBank.sol\":6462:6480  newTotal > bankCap */\n      gt\n        /* \"contracts/KipuBank.sol\":6458:6544  if (newTotal > bankCap) {... */\n      iszero\n      tag_76\n      jumpi\n        /* \"contracts/KipuBank.sol\":6515:6523  newTotal */\n      dup1\n        /* \"contracts/KipuBank.sol\":6525:6532  bankCap */\n      immutable(\"0x7446b42d7fe1689ec32fc1ca65129d9f21f1979742315d34500a6886f6986bea\")\n        /* \"contracts/KipuBank.sol\":6503:6533  CapExceeded(newTotal, bankCap) */\n      mload(0x40)\n      0xf480e28500000000000000000000000000000000000000000000000000000000\n      dup2\n      mstore\n      0x04\n      add\n      tag_77\n      swap3\n      swap2\n      swap1\n      tag_50\n      jump\t// in\n    tag_77:\n      mload(0x40)\n      dup1\n      swap2\n      sub\n      swap1\n      revert\n        /* \"contracts/KipuBank.sol\":6458:6544  if (newTotal > bankCap) {... */\n    tag_76:\n        /* \"contracts/KipuBank.sol\":6596:6605  msg.value */\n      callvalue\n        /* \"contracts/KipuBank.sol\":6573:6580  _vaults */\n      0x03\n        /* \"contracts/KipuBank.sol\":6573:6592  _vaults[msg.sender] */\n      0x00\n        /* \"contracts/KipuBank.sol\":6581:6591  msg.sender */\n      caller\n        /* \"contracts/KipuBank.sol\":6573:6592  _vaults[msg.sender] */\n      0xffffffffffffffffffffffffffffffffffffffff\n      and\n      0xffffffffffffffffffffffffffffffffffffffff\n      and\n      dup2\n      mstore\n      0x20\n      add\n      swap1\n      dup2\n      mstore\n      0x20\n      add\n      0x00\n      keccak256\n      0x00\n        /* \"contracts/KipuBank.sol\":6573:6605  _vaults[msg.sender] += msg.value */\n      dup3\n      dup3\n      sload\n      tag_78\n      swap2\n      swap1\n      tag_75\n      jump\t// in\n    tag_78:\n      swap3\n      pop\n      pop\n      dup2\n      swap1\n      sstore\n      pop\n        /* \"contracts/KipuBank.sol\":6628:6636  newTotal */\n      dup1\n        /* \"contracts/KipuBank.sol\":6615:6625  totalVault */\n      0x00\n        /* \"contracts/KipuBank.sol\":6615:6636  totalVault = newTotal */\n      dup2\n      swap1\n      sstore\n      pop\n        /* \"contracts/KipuBank.sol\":6686:6687  1 */\n      0x01\n        /* \"contracts/KipuBank.sol\":6670:6682  depositCount */\n      dup1\n      0x00\n        /* \"contracts/KipuBank.sol\":6670:6687  depositCount += 1 */\n      dup3\n      dup3\n      sload\n      add\n      swap3\n      pop\n      pop\n      dup2\n      swap1\n      sstore\n      pop\n        /* \"contracts/KipuBank.sol\":6723:6733  msg.sender */\n      caller\n        /* \"contracts/KipuBank.sol\":6713:6778  Deposited(msg.sender, msg.value, _vaults[msg.sender], totalVault) */\n      0xffffffffffffffffffffffffffffffffffffffff\n      and\n      0x91ede45f04a37a7c170f5c1207df3b6bc748dc1e04ad5e917a241d0f52feada3\n        /* \"contracts/KipuBank.sol\":6735:6744  msg.value */\n      callvalue\n        /* \"contracts/KipuBank.sol\":6746:6753  _vaults */\n      0x03\n        /* \"contracts/KipuBank.sol\":6746:6765  _vaults[msg.sender] */\n      0x00\n        /* \"contracts/KipuBank.sol\":6754:6764  msg.sender */\n      caller\n        /* \"contracts/KipuBank.sol\":6746:6765  _vaults[msg.sender] */\n      0xffffffffffffffffffffffffffffffffffffffff\n      and\n      0xffffffffffffffffffffffffffffffffffffffff\n      and\n      dup2\n      mstore\n      0x20\n      add\n      swap1\n      dup2\n      mstore\n      0x20\n      add\n      0x00\n      keccak256\n      sload\n        /* \"contracts/KipuBank.sol\":6767:6777  totalVault */\n      sload(0x00)\n        /* \"contracts/KipuBank.sol\":6713:6778  Deposited(msg.sender, msg.value, _vaults[msg.sender], totalVault) */\n      mload(0x40)\n      tag_79\n      swap4\n      swap3\n      swap2\n      swap1\n      tag_69\n      jump\t// in\n    tag_79:\n      mload(0x40)\n      dup1\n      swap2\n      sub\n      swap1\n      log2\n        /* \"contracts/KipuBank.sol\":6397:6785  {... */\n      pop\n        /* \"contracts/KipuBank.sol\":6342:6785  function deposit() external payable nonZero(msg.value) {... */\n      pop\n      jump\t// out\n        /* \"contracts/KipuBank.sol\":3210:3242  uint256 public immutable bankCap */\n    tag_55:\n      immutable(\"0x7446b42d7fe1689ec32fc1ca65129d9f21f1979742315d34500a6886f6986bea\")\n      dup2\n      jump\t// out\n        /* \"contracts/KipuBank.sol\":9137:9355  function _sendETH(address to, uint256 amount) private {... */\n    tag_67:\n        /* \"contracts/KipuBank.sol\":9261:9268  bool ok */\n      0x00\n        /* \"contracts/KipuBank.sol\":9274:9276  to */\n      dup3\n        /* \"contracts/KipuBank.sol\":9274:9281  to.call */\n      0xffffffffffffffffffffffffffffffffffffffff\n      and\n        /* \"contracts/KipuBank.sol\":9289:9295  amount */\n      dup3\n        /* \"contracts/KipuBank.sol\":9274:9300  to.call{value: amount}(\"\") */\n      mload(0x40)\n      tag_81\n      swap1\n      tag_82\n      jump\t// in\n    tag_81:\n      0x00\n      mload(0x40)\n      dup1\n      dup4\n      sub\n      dup2\n      dup6\n      dup8\n      gas\n      call\n      swap3\n      pop\n      pop\n      pop\n      returndatasize\n      dup1\n      0x00\n      dup2\n      eq\n      tag_85\n      jumpi\n      mload(0x40)\n      swap2\n      pop\n      and(add(returndatasize, 0x3f), not(0x1f))\n      dup3\n      add\n      0x40\n      mstore\n      returndatasize\n      dup3\n      mstore\n      returndatasize\n      0x00\n      0x20\n      dup5\n      add\n      returndatacopy\n      jump(tag_84)\n    tag_85:\n      0x60\n      swap2\n      pop\n    tag_84:\n      pop\n        /* \"contracts/KipuBank.sol\":9260:9300  (bool ok, ) = to.call{value: amount}(\"\") */\n      pop\n      swap1\n      pop\n        /* \"contracts/KipuBank.sol\":9315:9317  ok */\n      dup1\n        /* \"contracts/KipuBank.sol\":9310:9348  if (!ok) revert NativeTransferFailed() */\n      tag_86\n      jumpi\n        /* \"contracts/KipuBank.sol\":9326:9348  NativeTransferFailed() */\n      mload(0x40)\n      0xf4b3b1bc00000000000000000000000000000000000000000000000000000000\n      dup2\n      mstore\n      0x04\n      add\n      mload(0x40)\n      dup1\n      swap2\n      sub\n      swap1\n      revert\n        /* \"contracts/KipuBank.sol\":9310:9348  if (!ok) revert NativeTransferFailed() */\n    tag_86:\n        /* \"contracts/KipuBank.sol\":9191:9355  {... */\n      pop\n        /* \"contracts/KipuBank.sol\":9137:9355  function _sendETH(address to, uint256 amount) private {... */\n      pop\n      pop\n      jump\t// out\n        /* \"#utility.yul\":88:205   */\n    tag_88:\n        /* \"#utility.yul\":197:198   */\n      0x00\n        /* \"#utility.yul\":194:195   */\n      0x00\n        /* \"#utility.yul\":187:199   */\n      revert\n        /* \"#utility.yul\":334:460   */\n    tag_90:\n        /* \"#utility.yul\":371:378   */\n      0x00\n        /* \"#utility.yul\":411:453   */\n      0xffffffffffffffffffffffffffffffffffffffff\n        /* \"#utility.yul\":404:409   */\n      dup3\n        /* \"#utility.yul\":400:454   */\n      and\n        /* \"#utility.yul\":389:454   */\n      swap1\n      pop\n        /* \"#utility.yul\":334:460   */\n      swap2\n      swap1\n      pop\n      jump\t// out\n        /* \"#utility.yul\":466:562   */\n    tag_91:\n        /* \"#utility.yul\":503:510   */\n      0x00\n        /* \"#utility.yul\":532:556   */\n      tag_108\n        /* \"#utility.yul\":550:555   */\n      dup3\n        /* \"#utility.yul\":532:556   */\n      tag_90\n      jump\t// in\n    tag_108:\n        /* \"#utility.yul\":521:556   */\n      swap1\n      pop\n        /* \"#utility.yul\":466:562   */\n      swap2\n      swap1\n      pop\n      jump\t// out\n        /* \"#utility.yul\":568:690   */\n    tag_92:\n        /* \"#utility.yul\":641:665   */\n      tag_110\n        /* \"#utility.yul\":659:664   */\n      dup2\n        /* \"#utility.yul\":641:665   */\n      tag_91\n      jump\t// in\n    tag_110:\n        /* \"#utility.yul\":634:639   */\n      dup2\n        /* \"#utility.yul\":631:666   */\n      eq\n        /* \"#utility.yul\":621:684   */\n      tag_111\n      jumpi\n        /* \"#utility.yul\":680:681   */\n      0x00\n        /* \"#utility.yul\":677:678   */\n      0x00\n        /* \"#utility.yul\":670:682   */\n      revert\n        /* \"#utility.yul\":621:684   */\n    tag_111:\n        /* \"#utility.yul\":568:690   */\n      pop\n      jump\t// out\n        /* \"#utility.yul\":696:835   */\n    tag_93:\n        /* \"#utility.yul\":742:747   */\n      0x00\n        /* \"#utility.yul\":780:786   */\n      dup2\n        /* \"#utility.yul\":767:787   */\n      calldataload\n        /* \"#utility.yul\":758:787   */\n      swap1\n      pop\n        /* \"#utility.yul\":796:829   */\n      tag_113\n        /* \"#utility.yul\":823:828   */\n      dup2\n        /* \"#utility.yul\":796:829   */\n      tag_92\n      jump\t// in\n    tag_113:\n        /* \"#utility.yul\":696:835   */\n      swap3\n      swap2\n      pop\n      pop\n      jump\t// out\n        /* \"#utility.yul\":841:1170   */\n    tag_21:\n        /* \"#utility.yul\":900:906   */\n      0x00\n        /* \"#utility.yul\":949:951   */\n      0x20\n        /* \"#utility.yul\":937:946   */\n      dup3\n        /* \"#utility.yul\":928:935   */\n      dup5\n        /* \"#utility.yul\":924:947   */\n      sub\n        /* \"#utility.yul\":920:952   */\n      slt\n        /* \"#utility.yul\":917:1036   */\n      iszero\n      tag_115\n      jumpi\n        /* \"#utility.yul\":955:1034   */\n      tag_116\n      tag_88\n      jump\t// in\n    tag_116:\n        /* \"#utility.yul\":917:1036   */\n    tag_115:\n        /* \"#utility.yul\":1075:1076   */\n      0x00\n        /* \"#utility.yul\":1100:1153   */\n      tag_117\n        /* \"#utility.yul\":1145:1152   */\n      dup5\n        /* \"#utility.yul\":1136:1142   */\n      dup3\n        /* \"#utility.yul\":1125:1134   */\n      dup6\n        /* \"#utility.yul\":1121:1143   */\n      add\n        /* \"#utility.yul\":1100:1153   */\n      tag_93\n      jump\t// in\n    tag_117:\n        /* \"#utility.yul\":1090:1153   */\n      swap2\n      pop\n        /* \"#utility.yul\":1046:1163   */\n      pop\n        /* \"#utility.yul\":841:1170   */\n      swap3\n      swap2\n      pop\n      pop\n      jump\t// out\n        /* \"#utility.yul\":1176:1253   */\n    tag_94:\n        /* \"#utility.yul\":1213:1220   */\n      0x00\n        /* \"#utility.yul\":1242:1247   */\n      dup2\n        /* \"#utility.yul\":1231:1247   */\n      swap1\n      pop\n        /* \"#utility.yul\":1176:1253   */\n      swap2\n      swap1\n      pop\n      jump\t// out\n        /* \"#utility.yul\":1259:1377   */\n    tag_95:\n        /* \"#utility.yul\":1346:1370   */\n      tag_120\n        /* \"#utility.yul\":1364:1369   */\n      dup2\n        /* \"#utility.yul\":1346:1370   */\n      tag_94\n      jump\t// in\n    tag_120:\n        /* \"#utility.yul\":1341:1344   */\n      dup3\n        /* \"#utility.yul\":1334:1371   */\n      mstore\n        /* \"#utility.yul\":1259:1377   */\n      pop\n      pop\n      jump\t// out\n        /* \"#utility.yul\":1383:1605   */\n    tag_24:\n        /* \"#utility.yul\":1476:1480   */\n      0x00\n        /* \"#utility.yul\":1514:1516   */\n      0x20\n        /* \"#utility.yul\":1503:1512   */\n      dup3\n        /* \"#utility.yul\":1499:1517   */\n      add\n        /* \"#utility.yul\":1491:1517   */\n      swap1\n      pop\n        /* \"#utility.yul\":1527:1598   */\n      tag_122\n        /* \"#utility.yul\":1595:1596   */\n      0x00\n        /* \"#utility.yul\":1584:1593   */\n      dup4\n        /* \"#utility.yul\":1580:1597   */\n      add\n        /* \"#utility.yul\":1571:1577   */\n      dup5\n        /* \"#utility.yul\":1527:1598   */\n      tag_95\n      jump\t// in\n    tag_122:\n        /* \"#utility.yul\":1383:1605   */\n      swap3\n      swap2\n      pop\n      pop\n      jump\t// out\n        /* \"#utility.yul\":1611:1733   */\n    tag_96:\n        /* \"#utility.yul\":1684:1708   */\n      tag_124\n        /* \"#utility.yul\":1702:1707   */\n      dup2\n        /* \"#utility.yul\":1684:1708   */\n      tag_94\n      jump\t// in\n    tag_124:\n        /* \"#utility.yul\":1677:1682   */\n      dup2\n        /* \"#utility.yul\":1674:1709   */\n      eq\n        /* \"#utility.yul\":1664:1727   */\n      tag_125\n      jumpi\n        /* \"#utility.yul\":1723:1724   */\n      0x00\n        /* \"#utility.yul\":1720:1721   */\n      0x00\n        /* \"#utility.yul\":1713:1725   */\n      revert\n        /* \"#utility.yul\":1664:1727   */\n    tag_125:\n        /* \"#utility.yul\":1611:1733   */\n      pop\n      jump\t// out\n        /* \"#utility.yul\":1739:1878   */\n    tag_97:\n        /* \"#utility.yul\":1785:1790   */\n      0x00\n        /* \"#utility.yul\":1823:1829   */\n      dup2\n        /* \"#utility.yul\":1810:1830   */\n      calldataload\n        /* \"#utility.yul\":1801:1830   */\n      swap1\n      pop\n        /* \"#utility.yul\":1839:1872   */\n      tag_127\n        /* \"#utility.yul\":1866:1871   */\n      dup2\n        /* \"#utility.yul\":1839:1872   */\n      tag_96\n      jump\t// in\n    tag_127:\n        /* \"#utility.yul\":1739:1878   */\n      swap3\n      swap2\n      pop\n      pop\n      jump\t// out\n        /* \"#utility.yul\":1884:2213   */\n    tag_32:\n        /* \"#utility.yul\":1943:1949   */\n      0x00\n        /* \"#utility.yul\":1992:1994   */\n      0x20\n        /* \"#utility.yul\":1980:1989   */\n      dup3\n        /* \"#utility.yul\":1971:1978   */\n      dup5\n        /* \"#utility.yul\":1967:1990   */\n      sub\n        /* \"#utility.yul\":1963:1995   */\n      slt\n        /* \"#utility.yul\":1960:2079   */\n      iszero\n      tag_129\n      jumpi\n        /* \"#utility.yul\":1998:2077   */\n      tag_130\n      tag_88\n      jump\t// in\n    tag_130:\n        /* \"#utility.yul\":1960:2079   */\n    tag_129:\n        /* \"#utility.yul\":2118:2119   */\n      0x00\n        /* \"#utility.yul\":2143:2196   */\n      tag_131\n        /* \"#utility.yul\":2188:2195   */\n      dup5\n        /* \"#utility.yul\":2179:2185   */\n      dup3\n        /* \"#utility.yul\":2168:2177   */\n      dup6\n        /* \"#utility.yul\":2164:2186   */\n      add\n        /* \"#utility.yul\":2143:2196   */\n      tag_97\n      jump\t// in\n    tag_131:\n        /* \"#utility.yul\":2133:2196   */\n      swap2\n      pop\n        /* \"#utility.yul\":2089:2206   */\n      pop\n        /* \"#utility.yul\":1884:2213   */\n      swap3\n      swap2\n      pop\n      pop\n      jump\t// out\n        /* \"#utility.yul\":2219:2551   */\n    tag_50:\n        /* \"#utility.yul\":2340:2344   */\n      0x00\n        /* \"#utility.yul\":2378:2380   */\n      0x40\n        /* \"#utility.yul\":2367:2376   */\n      dup3\n        /* \"#utility.yul\":2363:2381   */\n      add\n        /* \"#utility.yul\":2355:2381   */\n      swap1\n      pop\n        /* \"#utility.yul\":2391:2462   */\n      tag_133\n        /* \"#utility.yul\":2459:2460   */\n      0x00\n        /* \"#utility.yul\":2448:2457   */\n      dup4\n        /* \"#utility.yul\":2444:2461   */\n      add\n        /* \"#utility.yul\":2435:2441   */\n      dup6\n        /* \"#utility.yul\":2391:2462   */\n      tag_95\n      jump\t// in\n    tag_133:\n        /* \"#utility.yul\":2472:2544   */\n      tag_134\n        /* \"#utility.yul\":2540:2542   */\n      0x20\n        /* \"#utility.yul\":2529:2538   */\n      dup4\n        /* \"#utility.yul\":2525:2543   */\n      add\n        /* \"#utility.yul\":2516:2522   */\n      dup5\n        /* \"#utility.yul\":2472:2544   */\n      tag_95\n      jump\t// in\n    tag_134:\n        /* \"#utility.yul\":2219:2551   */\n      swap4\n      swap3\n      pop\n      pop\n      pop\n      jump\t// out\n        /* \"#utility.yul\":2557:2999   */\n    tag_69:\n        /* \"#utility.yul\":2706:2710   */\n      0x00\n        /* \"#utility.yul\":2744:2746   */\n      0x60\n        /* \"#utility.yul\":2733:2742   */\n      dup3\n        /* \"#utility.yul\":2729:2747   */\n      add\n        /* \"#utility.yul\":2721:2747   */\n      swap1\n      pop\n        /* \"#utility.yul\":2757:2828   */\n      tag_136\n        /* \"#utility.yul\":2825:2826   */\n      0x00\n        /* \"#utility.yul\":2814:2823   */\n      dup4\n        /* \"#utility.yul\":2810:2827   */\n      add\n        /* \"#utility.yul\":2801:2807   */\n      dup7\n        /* \"#utility.yul\":2757:2828   */\n      tag_95\n      jump\t// in\n    tag_136:\n        /* \"#utility.yul\":2838:2910   */\n      tag_137\n        /* \"#utility.yul\":2906:2908   */\n      0x20\n        /* \"#utility.yul\":2895:2904   */\n      dup4\n        /* \"#utility.yul\":2891:2909   */\n      add\n        /* \"#utility.yul\":2882:2888   */\n      dup6\n        /* \"#utility.yul\":2838:2910   */\n      tag_95\n      jump\t// in\n    tag_137:\n        /* \"#utility.yul\":2920:2992   */\n      tag_138\n        /* \"#utility.yul\":2988:2990   */\n      0x40\n        /* \"#utility.yul\":2977:2986   */\n      dup4\n        /* \"#utility.yul\":2973:2991   */\n      add\n        /* \"#utility.yul\":2964:2970   */\n      dup5\n        /* \"#utility.yul\":2920:2992   */\n      tag_95\n      jump\t// in\n    tag_138:\n        /* \"#utility.yul\":2557:2999   */\n      swap5\n      swap4\n      pop\n      pop\n      pop\n      pop\n      jump\t// out\n        /* \"#utility.yul\":3005:3185   */\n    tag_98:\n        /* \"#utility.yul\":3053:3130   */\n      0x4e487b7100000000000000000000000000000000000000000000000000000000\n        /* \"#utility.yul\":3050:3051   */\n      0x00\n        /* \"#utility.yul\":3043:3131   */\n      mstore\n        /* \"#utility.yul\":3150:3154   */\n      0x11\n        /* \"#utility.yul\":3147:3148   */\n      0x04\n        /* \"#utility.yul\":3140:3155   */\n      mstore\n        /* \"#utility.yul\":3174:3178   */\n      0x24\n        /* \"#utility.yul\":3171:3172   */\n      0x00\n        /* \"#utility.yul\":3164:3179   */\n      revert\n        /* \"#utility.yul\":3191:3382   */\n    tag_75:\n        /* \"#utility.yul\":3231:3234   */\n      0x00\n        /* \"#utility.yul\":3250:3270   */\n      tag_141\n        /* \"#utility.yul\":3268:3269   */\n      dup3\n        /* \"#utility.yul\":3250:3270   */\n      tag_94\n      jump\t// in\n    tag_141:\n        /* \"#utility.yul\":3245:3270   */\n      swap2\n      pop\n        /* \"#utility.yul\":3284:3304   */\n      tag_142\n        /* \"#utility.yul\":3302:3303   */\n      dup4\n        /* \"#utility.yul\":3284:3304   */\n      tag_94\n      jump\t// in\n    tag_142:\n        /* \"#utility.yul\":3279:3304   */\n      swap3\n      pop\n        /* \"#utility.yul\":3327:3328   */\n      dup3\n        /* \"#utility.yul\":3324:3325   */\n      dup3\n        /* \"#utility.yul\":3320:3329   */\n      add\n        /* \"#utility.yul\":3313:3329   */\n      swap1\n      pop\n        /* \"#utility.yul\":3348:3351   */\n      dup1\n        /* \"#utility.yul\":3345:3346   */\n      dup3\n        /* \"#utility.yul\":3342:3352   */\n      gt\n        /* \"#utility.yul\":3339:3375   */\n      iszero\n      tag_143\n      jumpi\n        /* \"#utility.yul\":3355:3373   */\n      tag_144\n      tag_98\n      jump\t// in\n    tag_144:\n        /* \"#utility.yul\":3339:3375   */\n    tag_143:\n        /* \"#utility.yul\":3191:3382   */\n      swap3\n      swap2\n      pop\n      pop\n      jump\t// out\n        /* \"#utility.yul\":3388:3535   */\n    tag_99:\n        /* \"#utility.yul\":3489:3500   */\n      0x00\n        /* \"#utility.yul\":3526:3529   */\n      dup2\n        /* \"#utility.yul\":3511:3529   */\n      swap1\n      pop\n        /* \"#utility.yul\":3388:3535   */\n      swap3\n      swap2\n      pop\n      pop\n      jump\t// out\n        /* \"#utility.yul\":3541:3655   */\n    tag_100:\n      pop\n      jump\t// out\n        /* \"#utility.yul\":3661:4059   */\n    tag_101:\n        /* \"#utility.yul\":3820:3823   */\n      0x00\n        /* \"#utility.yul\":3841:3924   */\n      tag_148\n        /* \"#utility.yul\":3922:3923   */\n      0x00\n        /* \"#utility.yul\":3917:3920   */\n      dup4\n        /* \"#utility.yul\":3841:3924   */\n      tag_99\n      jump\t// in\n    tag_148:\n        /* \"#utility.yul\":3834:3924   */\n      swap2\n      pop\n        /* \"#utility.yul\":3933:4026   */\n      tag_149\n        /* \"#utility.yul\":4022:4025   */\n      dup3\n        /* \"#utility.yul\":3933:4026   */\n      tag_100\n      jump\t// in\n    tag_149:\n        /* \"#utility.yul\":4051:4052   */\n      0x00\n        /* \"#utility.yul\":4046:4049   */\n      dup3\n        /* \"#utility.yul\":4042:4053   */\n      add\n        /* \"#utility.yul\":4035:4053   */\n      swap1\n      pop\n        /* \"#utility.yul\":3661:4059   */\n      swap2\n      swap1\n      pop\n      jump\t// out\n        /* \"#utility.yul\":4065:4444   */\n    tag_82:\n        /* \"#utility.yul\":4249:4252   */\n      0x00\n        /* \"#utility.yul\":4271:4418   */\n      tag_151\n        /* \"#utility.yul\":4414:4417   */\n      dup3\n        /* \"#utility.yul\":4271:4418   */\n      tag_101\n      jump\t// in\n    tag_151:\n        /* \"#utility.yul\":4264:4418   */\n      swap2\n      pop\n        /* \"#utility.yul\":4435:4438   */\n      dup2\n        /* \"#utility.yul\":4428:4438   */\n      swap1\n      pop\n        /* \"#utility.yul\":4065:4444   */\n      swap2\n      swap1\n      pop\n      jump\t// out\n\n    auxdata: 0xa264697066735822122079058bbe9c1fcaff3a78ceecd862b52f324152dab3b1b8e24aa71c59a8e11e8f64736f6c634300081e0033\n}\n",
				"bytecode": {
					"linkReferences": {},
					"object": "60c060405234801561000f575f5ffd5b50604051610ba7380380610ba7833981810160405281019061003191906100cd565b5f82148061003e57505f81145b8061004857508181115b1561007f576040517f1510b77f00000000000000000000000000000000000000000000000000000000815260040160405180910390fd5b81608081815250508060a08181525050505061010b565b5f5ffd5b5f819050919050565b6100ac8161009a565b81146100b6575f5ffd5b50565b5f815190506100c7816100a3565b92915050565b5f5f604083850312156100e3576100e2610096565b5b5f6100f0858286016100b9565b9250506020610101858286016100b9565b9150509250929050565b60805160a051610a516101565f395f81816102f0015281816103190152818161050c015261055301525f8181610532015281816105c6015281816105ef01526107490152610a515ff3fe608060405260043610610089575f3560e01c806371706cbe1161005857806371706cbe146101b4578063760ee4c6146101de578063c3f909d414610208578063d0e30db014610233578063ecbea24d1461023d576100c0565b80630709df45146100fc5780632dfdf0b5146101385780632e1a7d4d1461016257806364fe41b31461018a576100c0565b366100c0576040517f21b5d54300000000000000000000000000000000000000000000000000000000815260040160405180910390fd5b5f3411156100fa576040517f21b5d54300000000000000000000000000000000000000000000000000000000815260040160405180910390fd5b005b348015610107575f5ffd5b50610122600480360381019061011d919061086d565b610267565b60405161012f91906108b0565b60405180910390f35b348015610143575f5ffd5b5061014c6102ad565b60405161015991906108b0565b60405180910390f35b34801561016d575f5ffd5b50610188600480360381019061018391906108f3565b6102b3565b005b348015610195575f5ffd5b5061019e6104ff565b6040516101ab91906108b0565b60405180910390f35b3480156101bf575f5ffd5b506101c8610504565b6040516101d591906108b0565b60405180910390f35b3480156101e9575f5ffd5b506101f261050a565b6040516101ff91906108b0565b60405180910390f35b348015610213575f5ffd5b5061021c61052e565b60405161022a92919061091e565b60405180910390f35b61023b61057a565b005b348015610248575f5ffd5b50610251610747565b60405161025e91906108b0565b60405180910390f35b5f60035f8373ffffffffffffffffffffffffffffffffffffffff1673ffffffffffffffffffffffffffffffffffffffff1681526020019081526020015f20549050919050565b60015481565b805f81036102ed576040517f1f2a200500000000000000000000000000000000000000000000000000000000815260040160405180910390fd5b817f000000000000000000000000000000000000000000000000000000000000000081111561037557807f00000000000000000000000000000000000000000000000000000000000000006040517ff7767ff400000000000000000000000000000000000000000000000000000000815260040161036c92919061091e565b60405180910390fd5b5f60035f3373ffffffffffffffffffffffffffffffffffffffff1673ffffffffffffffffffffffffffffffffffffffff1681526020019081526020015f20549050838110156103fd5780846040517f556b850b0000000000000000000000000000000000000000000000000000000081526004016103f492919061091e565b60405180910390fd5b83810360035f3373ffffffffffffffffffffffffffffffffffffffff1673ffffffffffffffffffffffffffffffffffffffff1681526020019081526020015f2081905550835f5f8282540392505081905550600160025f8282540192505081905550610469338561076b565b3373ffffffffffffffffffffffffffffffffffffffff167f75e161b3e824b114fc1a33274bd7091918dd4e639cede50b78b15a4eea956a218560035f3373ffffffffffffffffffffffffffffffffffffffff1673ffffffffffffffffffffffffffffffffffffffff1681526020019081526020015f20545f546040516104f193929190610945565b60405180910390a250505050565b5f5481565b60025481565b7f000000000000000000000000000000000000000000000000000000000000000081565b5f5f7f00000000000000000000000000000000000000000000000000000000000000007f0000000000000000000000000000000000000000000000000000000000000000915091509091565b345f81036105b4576040517f1f2a200500000000000000000000000000000000000000000000000000000000815260040160405180910390fd5b5f345f546105c291906109a7565b90507f000000000000000000000000000000000000000000000000000000000000000081111561064b57807f00000000000000000000000000000000000000000000000000000000000000006040517ff480e28500000000000000000000000000000000000000000000000000000000815260040161064292919061091e565b60405180910390fd5b3460035f3373ffffffffffffffffffffffffffffffffffffffff1673ffffffffffffffffffffffffffffffffffffffff1681526020019081526020015f205f82825461069791906109a7565b92505081905550805f819055506001805f82825401925050819055503373ffffffffffffffffffffffffffffffffffffffff167f91ede45f04a37a7c170f5c1207df3b6bc748dc1e04ad5e917a241d0f52feada33460035f3373ffffffffffffffffffffffffffffffffffffffff1673ffffffffffffffffffffffffffffffffffffffff1681526020019081526020015f20545f5460405161073b93929190610945565b60405180910390a25050565b7f000000000000000000000000000000000000000000000000000000000000000081565b5f8273ffffffffffffffffffffffffffffffffffffffff168260405161079090610a07565b5f6040518083038185875af1925050503d805f81146107ca576040519150601f19603f3d011682016040523d82523d5f602084013e6107cf565b606091505b505090508061080a576040517ff4b3b1bc00000000000000000000000000000000000000000000000000000000815260040160405180910390fd5b505050565b5f5ffd5b5f73ffffffffffffffffffffffffffffffffffffffff82169050919050565b5f61083c82610813565b9050919050565b61084c81610832565b8114610856575f5ffd5b50565b5f8135905061086781610843565b92915050565b5f602082840312156108825761088161080f565b5b5f61088f84828501610859565b91505092915050565b5f819050919050565b6108aa81610898565b82525050565b5f6020820190506108c35f8301846108a1565b92915050565b6108d281610898565b81146108dc575f5ffd5b50565b5f813590506108ed816108c9565b92915050565b5f602082840312156109085761090761080f565b5b5f610915848285016108df565b91505092915050565b5f6040820190506109315f8301856108a1565b61093e60208301846108a1565b9392505050565b5f6060820190506109585f8301866108a1565b61096560208301856108a1565b61097260408301846108a1565b949350505050565b7f4e487b71000000000000000000000000000000000000000000000000000000005f52601160045260245ffd5b5f6109b182610898565b91506109bc83610898565b92508282019050808211156109d4576109d361097a565b5b92915050565b5f81905092915050565b50565b5f6109f25f836109da565b91506109fd826109e4565b5f82019050919050565b5f610a11826109e7565b915081905091905056fea264697066735822122079058bbe9c1fcaff3a78ceecd862b52f324152dab3b1b8e24aa71c59a8e11e8f64736f6c634300081e0033",
					"opcodes": "PUSH1 0xC0 PUSH1 0x40 MSTORE CALLVALUE DUP1 ISZERO PUSH2 0xF JUMPI PUSH0 PUSH0 REVERT JUMPDEST POP PUSH1 0x40 MLOAD PUSH2 0xBA7 CODESIZE SUB DUP1 PUSH2 0xBA7 DUP4 CODECOPY DUP2 DUP2 ADD PUSH1 0x40 MSTORE DUP2 ADD SWAP1 PUSH2 0x31 SWAP2 SWAP1 PUSH2 0xCD JUMP JUMPDEST PUSH0 DUP3 EQ DUP1 PUSH2 0x3E JUMPI POP PUSH0 DUP2 EQ JUMPDEST DUP1 PUSH2 0x48 JUMPI POP DUP2 DUP2 GT JUMPDEST ISZERO PUSH2 0x7F JUMPI PUSH1 0x40 MLOAD PUSH32 0x1510B77F00000000000000000000000000000000000000000000000000000000 DUP2 MSTORE PUSH1 0x4 ADD PUSH1 0x40 MLOAD DUP1 SWAP2 SUB SWAP1 REVERT JUMPDEST DUP2 PUSH1 0x80 DUP2 DUP2 MSTORE POP POP DUP1 PUSH1 0xA0 DUP2 DUP2 MSTORE POP POP POP POP PUSH2 0x10B JUMP JUMPDEST PUSH0 PUSH0 REVERT JUMPDEST PUSH0 DUP2 SWAP1 POP SWAP2 SWAP1 POP JUMP JUMPDEST PUSH2 0xAC DUP2 PUSH2 0x9A JUMP JUMPDEST DUP2 EQ PUSH2 0xB6 JUMPI PUSH0 PUSH0 REVERT JUMPDEST POP JUMP JUMPDEST PUSH0 DUP2 MLOAD SWAP1 POP PUSH2 0xC7 DUP2 PUSH2 0xA3 JUMP JUMPDEST SWAP3 SWAP2 POP POP JUMP JUMPDEST PUSH0 PUSH0 PUSH1 0x40 DUP4 DUP6 SUB SLT ISZERO PUSH2 0xE3 JUMPI PUSH2 0xE2 PUSH2 0x96 JUMP JUMPDEST JUMPDEST PUSH0 PUSH2 0xF0 DUP6 DUP3 DUP7 ADD PUSH2 0xB9 JUMP JUMPDEST SWAP3 POP POP PUSH1 0x20 PUSH2 0x101 DUP6 DUP3 DUP7 ADD PUSH2 0xB9 JUMP JUMPDEST SWAP2 POP POP SWAP3 POP SWAP3 SWAP1 POP JUMP JUMPDEST PUSH1 0x80 MLOAD PUSH1 0xA0 MLOAD PUSH2 0xA51 PUSH2 0x156 PUSH0 CODECOPY PUSH0 DUP2 DUP2 PUSH2 0x2F0 ADD MSTORE DUP2 DUP2 PUSH2 0x319 ADD MSTORE DUP2 DUP2 PUSH2 0x50C ADD MSTORE PUSH2 0x553 ADD MSTORE PUSH0 DUP2 DUP2 PUSH2 0x532 ADD MSTORE DUP2 DUP2 PUSH2 0x5C6 ADD MSTORE DUP2 DUP2 PUSH2 0x5EF ADD MSTORE PUSH2 0x749 ADD MSTORE PUSH2 0xA51 PUSH0 RETURN INVALID PUSH1 0x80 PUSH1 0x40 MSTORE PUSH1 0x4 CALLDATASIZE LT PUSH2 0x89 JUMPI PUSH0 CALLDATALOAD PUSH1 0xE0 SHR DUP1 PUSH4 0x71706CBE GT PUSH2 0x58 JUMPI DUP1 PUSH4 0x71706CBE EQ PUSH2 0x1B4 JUMPI DUP1 PUSH4 0x760EE4C6 EQ PUSH2 0x1DE JUMPI DUP1 PUSH4 0xC3F909D4 EQ PUSH2 0x208 JUMPI DUP1 PUSH4 0xD0E30DB0 EQ PUSH2 0x233 JUMPI DUP1 PUSH4 0xECBEA24D EQ PUSH2 0x23D JUMPI PUSH2 0xC0 JUMP JUMPDEST DUP1 PUSH4 0x709DF45 EQ PUSH2 0xFC JUMPI DUP1 PUSH4 0x2DFDF0B5 EQ PUSH2 0x138 JUMPI DUP1 PUSH4 0x2E1A7D4D EQ PUSH2 0x162 JUMPI DUP1 PUSH4 0x64FE41B3 EQ PUSH2 0x18A JUMPI PUSH2 0xC0 JUMP JUMPDEST CALLDATASIZE PUSH2 0xC0 JUMPI PUSH1 0x40 MLOAD PUSH32 0x21B5D54300000000000000000000000000000000000000000000000000000000 DUP2 MSTORE PUSH1 0x4 ADD PUSH1 0x40 MLOAD DUP1 SWAP2 SUB SWAP1 REVERT JUMPDEST PUSH0 CALLVALUE GT ISZERO PUSH2 0xFA JUMPI PUSH1 0x40 MLOAD PUSH32 0x21B5D54300000000000000000000000000000000000000000000000000000000 DUP2 MSTORE PUSH1 0x4 ADD PUSH1 0x40 MLOAD DUP1 SWAP2 SUB SWAP1 REVERT JUMPDEST STOP JUMPDEST CALLVALUE DUP1 ISZERO PUSH2 0x107 JUMPI PUSH0 PUSH0 REVERT JUMPDEST POP PUSH2 0x122 PUSH1 0x4 DUP1 CALLDATASIZE SUB DUP2 ADD SWAP1 PUSH2 0x11D SWAP2 SWAP1 PUSH2 0x86D JUMP JUMPDEST PUSH2 0x267 JUMP JUMPDEST PUSH1 0x40 MLOAD PUSH2 0x12F SWAP2 SWAP1 PUSH2 0x8B0 JUMP JUMPDEST PUSH1 0x40 MLOAD DUP1 SWAP2 SUB SWAP1 RETURN JUMPDEST CALLVALUE DUP1 ISZERO PUSH2 0x143 JUMPI PUSH0 PUSH0 REVERT JUMPDEST POP PUSH2 0x14C PUSH2 0x2AD JUMP JUMPDEST PUSH1 0x40 MLOAD PUSH2 0x159 SWAP2 SWAP1 PUSH2 0x8B0 JUMP JUMPDEST PUSH1 0x40 MLOAD DUP1 SWAP2 SUB SWAP1 RETURN JUMPDEST CALLVALUE DUP1 ISZERO PUSH2 0x16D JUMPI PUSH0 PUSH0 REVERT JUMPDEST POP PUSH2 0x188 PUSH1 0x4 DUP1 CALLDATASIZE SUB DUP2 ADD SWAP1 PUSH2 0x183 SWAP2 SWAP1 PUSH2 0x8F3 JUMP JUMPDEST PUSH2 0x2B3 JUMP JUMPDEST STOP JUMPDEST CALLVALUE DUP1 ISZERO PUSH2 0x195 JUMPI PUSH0 PUSH0 REVERT JUMPDEST POP PUSH2 0x19E PUSH2 0x4FF JUMP JUMPDEST PUSH1 0x40 MLOAD PUSH2 0x1AB SWAP2 SWAP1 PUSH2 0x8B0 JUMP JUMPDEST PUSH1 0x40 MLOAD DUP1 SWAP2 SUB SWAP1 RETURN JUMPDEST CALLVALUE DUP1 ISZERO PUSH2 0x1BF JUMPI PUSH0 PUSH0 REVERT JUMPDEST POP PUSH2 0x1C8 PUSH2 0x504 JUMP JUMPDEST PUSH1 0x40 MLOAD PUSH2 0x1D5 SWAP2 SWAP1 PUSH2 0x8B0 JUMP JUMPDEST PUSH1 0x40 MLOAD DUP1 SWAP2 SUB SWAP1 RETURN JUMPDEST CALLVALUE DUP1 ISZERO PUSH2 0x1E9 JUMPI PUSH0 PUSH0 REVERT JUMPDEST POP PUSH2 0x1F2 PUSH2 0x50A JUMP JUMPDEST PUSH1 0x40 MLOAD PUSH2 0x1FF SWAP2 SWAP1 PUSH2 0x8B0 JUMP JUMPDEST PUSH1 0x40 MLOAD DUP1 SWAP2 SUB SWAP1 RETURN JUMPDEST CALLVALUE DUP1 ISZERO PUSH2 0x213 JUMPI PUSH0 PUSH0 REVERT JUMPDEST POP PUSH2 0x21C PUSH2 0x52E JUMP JUMPDEST PUSH1 0x40 MLOAD PUSH2 0x22A SWAP3 SWAP2 SWAP1 PUSH2 0x91E JUMP JUMPDEST PUSH1 0x40 MLOAD DUP1 SWAP2 SUB SWAP1 RETURN JUMPDEST PUSH2 0x23B PUSH2 0x57A JUMP JUMPDEST STOP JUMPDEST CALLVALUE DUP1 ISZERO PUSH2 0x248 JUMPI PUSH0 PUSH0 REVERT JUMPDEST POP PUSH2 0x251 PUSH2 0x747 JUMP JUMPDEST PUSH1 0x40 MLOAD PUSH2 0x25E SWAP2 SWAP1 PUSH2 0x8B0 JUMP JUMPDEST PUSH1 0x40 MLOAD DUP1 SWAP2 SUB SWAP1 RETURN JUMPDEST PUSH0 PUSH1 0x3 PUSH0 DUP4 PUSH20 0xFFFFFFFFFFFFFFFFFFFFFFFFFFFFFFFFFFFFFFFF AND PUSH20 0xFFFFFFFFFFFFFFFFFFFFFFFFFFFFFFFFFFFFFFFF AND DUP2 MSTORE PUSH1 0x20 ADD SWAP1 DUP2 MSTORE PUSH1 0x20 ADD PUSH0 KECCAK256 SLOAD SWAP1 POP SWAP2 SWAP1 POP JUMP JUMPDEST PUSH1 0x1 SLOAD DUP2 JUMP JUMPDEST DUP1 PUSH0 DUP2 SUB PUSH2 0x2ED JUMPI PUSH1 0x40 MLOAD PUSH32 0x1F2A200500000000000000000000000000000000000000000000000000000000 DUP2 MSTORE PUSH1 0x4 ADD PUSH1 0x40 MLOAD DUP1 SWAP2 SUB SWAP1 REVERT JUMPDEST DUP2 PUSH32 0x0 DUP2 GT ISZERO PUSH2 0x375 JUMPI DUP1 PUSH32 0x0 PUSH1 0x40 MLOAD PUSH32 0xF7767FF400000000000000000000000000000000000000000000000000000000 DUP2 MSTORE PUSH1 0x4 ADD PUSH2 0x36C SWAP3 SWAP2 SWAP1 PUSH2 0x91E JUMP JUMPDEST PUSH1 0x40 MLOAD DUP1 SWAP2 SUB SWAP1 REVERT JUMPDEST PUSH0 PUSH1 0x3 PUSH0 CALLER PUSH20 0xFFFFFFFFFFFFFFFFFFFFFFFFFFFFFFFFFFFFFFFF AND PUSH20 0xFFFFFFFFFFFFFFFFFFFFFFFFFFFFFFFFFFFFFFFF AND DUP2 MSTORE PUSH1 0x20 ADD SWAP1 DUP2 MSTORE PUSH1 0x20 ADD PUSH0 KECCAK256 SLOAD SWAP1 POP DUP4 DUP2 LT ISZERO PUSH2 0x3FD JUMPI DUP1 DUP5 PUSH1 0x40 MLOAD PUSH32 0x556B850B00000000000000000000000000000000000000000000000000000000 DUP2 MSTORE PUSH1 0x4 ADD PUSH2 0x3F4 SWAP3 SWAP2 SWAP1 PUSH2 0x91E JUMP JUMPDEST PUSH1 0x40 MLOAD DUP1 SWAP2 SUB SWAP1 REVERT JUMPDEST DUP4 DUP2 SUB PUSH1 0x3 PUSH0 CALLER PUSH20 0xFFFFFFFFFFFFFFFFFFFFFFFFFFFFFFFFFFFFFFFF AND PUSH20 0xFFFFFFFFFFFFFFFFFFFFFFFFFFFFFFFFFFFFFFFF AND DUP2 MSTORE PUSH1 0x20 ADD SWAP1 DUP2 MSTORE PUSH1 0x20 ADD PUSH0 KECCAK256 DUP2 SWAP1 SSTORE POP DUP4 PUSH0 PUSH0 DUP3 DUP3 SLOAD SUB SWAP3 POP POP DUP2 SWAP1 SSTORE POP PUSH1 0x1 PUSH1 0x2 PUSH0 DUP3 DUP3 SLOAD ADD SWAP3 POP POP DUP2 SWAP1 SSTORE POP PUSH2 0x469 CALLER DUP6 PUSH2 0x76B JUMP JUMPDEST CALLER PUSH20 0xFFFFFFFFFFFFFFFFFFFFFFFFFFFFFFFFFFFFFFFF AND PUSH32 0x75E161B3E824B114FC1A33274BD7091918DD4E639CEDE50B78B15A4EEA956A21 DUP6 PUSH1 0x3 PUSH0 CALLER PUSH20 0xFFFFFFFFFFFFFFFFFFFFFFFFFFFFFFFFFFFFFFFF AND PUSH20 0xFFFFFFFFFFFFFFFFFFFFFFFFFFFFFFFFFFFFFFFF AND DUP2 MSTORE PUSH1 0x20 ADD SWAP1 DUP2 MSTORE PUSH1 0x20 ADD PUSH0 KECCAK256 SLOAD PUSH0 SLOAD PUSH1 0x40 MLOAD PUSH2 0x4F1 SWAP4 SWAP3 SWAP2 SWAP1 PUSH2 0x945 JUMP JUMPDEST PUSH1 0x40 MLOAD DUP1 SWAP2 SUB SWAP1 LOG2 POP POP POP POP JUMP JUMPDEST PUSH0 SLOAD DUP2 JUMP JUMPDEST PUSH1 0x2 SLOAD DUP2 JUMP JUMPDEST PUSH32 0x0 DUP2 JUMP JUMPDEST PUSH0 PUSH0 PUSH32 0x0 PUSH32 0x0 SWAP2 POP SWAP2 POP SWAP1 SWAP2 JUMP JUMPDEST CALLVALUE PUSH0 DUP2 SUB PUSH2 0x5B4 JUMPI PUSH1 0x40 MLOAD PUSH32 0x1F2A200500000000000000000000000000000000000000000000000000000000 DUP2 MSTORE PUSH1 0x4 ADD PUSH1 0x40 MLOAD DUP1 SWAP2 SUB SWAP1 REVERT JUMPDEST PUSH0 CALLVALUE PUSH0 SLOAD PUSH2 0x5C2 SWAP2 SWAP1 PUSH2 0x9A7 JUMP JUMPDEST SWAP1 POP PUSH32 0x0 DUP2 GT ISZERO PUSH2 0x64B JUMPI DUP1 PUSH32 0x0 PUSH1 0x40 MLOAD PUSH32 0xF480E28500000000000000000000000000000000000000000000000000000000 DUP2 MSTORE PUSH1 0x4 ADD PUSH2 0x642 SWAP3 SWAP2 SWAP1 PUSH2 0x91E JUMP JUMPDEST PUSH1 0x40 MLOAD DUP1 SWAP2 SUB SWAP1 REVERT JUMPDEST CALLVALUE PUSH1 0x3 PUSH0 CALLER PUSH20 0xFFFFFFFFFFFFFFFFFFFFFFFFFFFFFFFFFFFFFFFF AND PUSH20 0xFFFFFFFFFFFFFFFFFFFFFFFFFFFFFFFFFFFFFFFF AND DUP2 MSTORE PUSH1 0x20 ADD SWAP1 DUP2 MSTORE PUSH1 0x20 ADD PUSH0 KECCAK256 PUSH0 DUP3 DUP3 SLOAD PUSH2 0x697 SWAP2 SWAP1 PUSH2 0x9A7 JUMP JUMPDEST SWAP3 POP POP DUP2 SWAP1 SSTORE POP DUP1 PUSH0 DUP2 SWAP1 SSTORE POP PUSH1 0x1 DUP1 PUSH0 DUP3 DUP3 SLOAD ADD SWAP3 POP POP DUP2 SWAP1 SSTORE POP CALLER PUSH20 0xFFFFFFFFFFFFFFFFFFFFFFFFFFFFFFFFFFFFFFFF AND PUSH32 0x91EDE45F04A37A7C170F5C1207DF3B6BC748DC1E04AD5E917A241D0F52FEADA3 CALLVALUE PUSH1 0x3 PUSH0 CALLER PUSH20 0xFFFFFFFFFFFFFFFFFFFFFFFFFFFFFFFFFFFFFFFF AND PUSH20 0xFFFFFFFFFFFFFFFFFFFFFFFFFFFFFFFFFFFFFFFF AND DUP2 MSTORE PUSH1 0x20 ADD SWAP1 DUP2 MSTORE PUSH1 0x20 ADD PUSH0 KECCAK256 SLOAD PUSH0 SLOAD PUSH1 0x40 MLOAD PUSH2 0x73B SWAP4 SWAP3 SWAP2 SWAP1 PUSH2 0x945 JUMP JUMPDEST PUSH1 0x40 MLOAD DUP1 SWAP2 SUB SWAP1 LOG2 POP POP JUMP JUMPDEST PUSH32 0x0 DUP2 JUMP JUMPDEST PUSH0 DUP3 PUSH20 0xFFFFFFFFFFFFFFFFFFFFFFFFFFFFFFFFFFFFFFFF AND DUP3 PUSH1 0x40 MLOAD PUSH2 0x790 SWAP1 PUSH2 0xA07 JUMP JUMPDEST PUSH0 PUSH1 0x40 MLOAD DUP1 DUP4 SUB DUP2 DUP6 DUP8 GAS CALL SWAP3 POP POP POP RETURNDATASIZE DUP1 PUSH0 DUP2 EQ PUSH2 0x7CA JUMPI PUSH1 0x40 MLOAD SWAP2 POP PUSH1 0x1F NOT PUSH1 0x3F RETURNDATASIZE ADD AND DUP3 ADD PUSH1 0x40 MSTORE RETURNDATASIZE DUP3 MSTORE RETURNDATASIZE PUSH0 PUSH1 0x20 DUP5 ADD RETURNDATACOPY PUSH2 0x7CF JUMP JUMPDEST PUSH1 0x60 SWAP2 POP JUMPDEST POP POP SWAP1 POP DUP1 PUSH2 0x80A JUMPI PUSH1 0x40 MLOAD PUSH32 0xF4B3B1BC00000000000000000000000000000000000000000000000000000000 DUP2 MSTORE PUSH1 0x4 ADD PUSH1 0x40 MLOAD DUP1 SWAP2 SUB SWAP1 REVERT JUMPDEST POP POP POP JUMP JUMPDEST PUSH0 PUSH0 REVERT JUMPDEST PUSH0 PUSH20 0xFFFFFFFFFFFFFFFFFFFFFFFFFFFFFFFFFFFFFFFF DUP3 AND SWAP1 POP SWAP2 SWAP1 POP JUMP JUMPDEST PUSH0 PUSH2 0x83C DUP3 PUSH2 0x813 JUMP JUMPDEST SWAP1 POP SWAP2 SWAP1 POP JUMP JUMPDEST PUSH2 0x84C DUP2 PUSH2 0x832 JUMP JUMPDEST DUP2 EQ PUSH2 0x856 JUMPI PUSH0 PUSH0 REVERT JUMPDEST POP JUMP JUMPDEST PUSH0 DUP2 CALLDATALOAD SWAP1 POP PUSH2 0x867 DUP2 PUSH2 0x843 JUMP JUMPDEST SWAP3 SWAP2 POP POP JUMP JUMPDEST PUSH0 PUSH1 0x20 DUP3 DUP5 SUB SLT ISZERO PUSH2 0x882 JUMPI PUSH2 0x881 PUSH2 0x80F JUMP JUMPDEST JUMPDEST PUSH0 PUSH2 0x88F DUP5 DUP3 DUP6 ADD PUSH2 0x859 JUMP JUMPDEST SWAP2 POP POP SWAP3 SWAP2 POP POP JUMP JUMPDEST PUSH0 DUP2 SWAP1 POP SWAP2 SWAP1 POP JUMP JUMPDEST PUSH2 0x8AA DUP2 PUSH2 0x898 JUMP JUMPDEST DUP3 MSTORE POP POP JUMP JUMPDEST PUSH0 PUSH1 0x20 DUP3 ADD SWAP1 POP PUSH2 0x8C3 PUSH0 DUP4 ADD DUP5 PUSH2 0x8A1 JUMP JUMPDEST SWAP3 SWAP2 POP POP JUMP JUMPDEST PUSH2 0x8D2 DUP2 PUSH2 0x898 JUMP JUMPDEST DUP2 EQ PUSH2 0x8DC JUMPI PUSH0 PUSH0 REVERT JUMPDEST POP JUMP JUMPDEST PUSH0 DUP2 CALLDATALOAD SWAP1 POP PUSH2 0x8ED DUP2 PUSH2 0x8C9 JUMP JUMPDEST SWAP3 SWAP2 POP POP JUMP JUMPDEST PUSH0 PUSH1 0x20 DUP3 DUP5 SUB SLT ISZERO PUSH2 0x908 JUMPI PUSH2 0x907 PUSH2 0x80F JUMP JUMPDEST JUMPDEST PUSH0 PUSH2 0x915 DUP5 DUP3 DUP6 ADD PUSH2 0x8DF JUMP JUMPDEST SWAP2 POP POP SWAP3 SWAP2 POP POP JUMP JUMPDEST PUSH0 PUSH1 0x40 DUP3 ADD SWAP1 POP PUSH2 0x931 PUSH0 DUP4 ADD DUP6 PUSH2 0x8A1 JUMP JUMPDEST PUSH2 0x93E PUSH1 0x20 DUP4 ADD DUP5 PUSH2 0x8A1 JUMP JUMPDEST SWAP4 SWAP3 POP POP POP JUMP JUMPDEST PUSH0 PUSH1 0x60 DUP3 ADD SWAP1 POP PUSH2 0x958 PUSH0 DUP4 ADD DUP7 PUSH2 0x8A1 JUMP JUMPDEST PUSH2 0x965 PUSH1 0x20 DUP4 ADD DUP6 PUSH2 0x8A1 JUMP JUMPDEST PUSH2 0x972 PUSH1 0x40 DUP4 ADD DUP5 PUSH2 0x8A1 JUMP JUMPDEST SWAP5 SWAP4 POP POP POP POP JUMP JUMPDEST PUSH32 0x4E487B7100000000000000000000000000000000000000000000000000000000 PUSH0 MSTORE PUSH1 0x11 PUSH1 0x4 MSTORE PUSH1 0x24 PUSH0 REVERT JUMPDEST PUSH0 PUSH2 0x9B1 DUP3 PUSH2 0x898 JUMP JUMPDEST SWAP2 POP PUSH2 0x9BC DUP4 PUSH2 0x898 JUMP JUMPDEST SWAP3 POP DUP3 DUP3 ADD SWAP1 POP DUP1 DUP3 GT ISZERO PUSH2 0x9D4 JUMPI PUSH2 0x9D3 PUSH2 0x97A JUMP JUMPDEST JUMPDEST SWAP3 SWAP2 POP POP JUMP JUMPDEST PUSH0 DUP2 SWAP1 POP SWAP3 SWAP2 POP POP JUMP JUMPDEST POP JUMP JUMPDEST PUSH0 PUSH2 0x9F2 PUSH0 DUP4 PUSH2 0x9DA JUMP JUMPDEST SWAP2 POP PUSH2 0x9FD DUP3 PUSH2 0x9E4 JUMP JUMPDEST PUSH0 DUP3 ADD SWAP1 POP SWAP2 SWAP1 POP JUMP JUMPDEST PUSH0 PUSH2 0xA11 DUP3 PUSH2 0x9E7 JUMP JUMPDEST SWAP2 POP DUP2 SWAP1 POP SWAP2 SWAP1 POP JUMP INVALID LOG2 PUSH5 0x6970667358 0x22 SLT KECCAK256 PUSH26 0x58BBE9C1FCAFF3A78CEECD862B52F324152DAB3B1B8E24AA71C MSIZE 0xA8 RJUMPI 0x1E8F PUSH5 0x736F6C6343 STOP ADDMOD 0x1E STOP CALLER "
				},
				"gasEstimates": {
					"creation": {
						"codeDepositCost": "528200",
						"executionCost": "infinite",
						"totalCost": "infinite"
					},
					"external": {
						"": "241",
						"bankCap()": "infinite",
						"deposit()": "infinite",
						"depositCount()": "2448",
						"getConfig()": "infinite",
						"totalVault()": "2491",
						"vaultOf(address)": "2830",
						"withdraw(uint256)": "infinite",
						"withdrawThreshold()": "infinite",
						"withdrawalCount()": "2425"
					},
					"internal": {
						"_sendETH(address,uint256)": "infinite"
					}
				},
				"methodIdentifiers": {
					"bankCap()": "ecbea24d",
					"deposit()": "d0e30db0",
					"depositCount()": "2dfdf0b5",
					"getConfig()": "c3f909d4",
					"totalVault()": "64fe41b3",
					"vaultOf(address)": "0709df45",
					"withdraw(uint256)": "2e1a7d4d",
					"withdrawThreshold()": "760ee4c6",
					"withdrawalCount()": "71706cbe"
				}
			},
			"storageLayout": {
				"storage": [
					{
						"astId": 66,
						"contract": "contracts/KipuBank.sol:KipuBank",
						"label": "totalVault",
						"offset": 0,
						"slot": "0",
						"type": "t_uint256"
					},
					{
						"astId": 69,
						"contract": "contracts/KipuBank.sol:KipuBank",
						"label": "depositCount",
						"offset": 0,
						"slot": "1",
						"type": "t_uint256"
					},
					{
						"astId": 72,
						"contract": "contracts/KipuBank.sol:KipuBank",
						"label": "withdrawalCount",
						"offset": 0,
						"slot": "2",
						"type": "t_uint256"
					},
					{
						"astId": 77,
						"contract": "contracts/KipuBank.sol:KipuBank",
						"label": "_vaults",
						"offset": 0,
						"slot": "3",
						"type": "t_mapping(t_address,t_uint256)"
					}
				],
				"types": {
					"t_address": {
						"encoding": "inplace",
						"label": "address",
						"numberOfBytes": "20"
					},
					"t_mapping(t_address,t_uint256)": {
						"encoding": "mapping",
						"key": "t_address",
						"label": "mapping(address => uint256)",
						"numberOfBytes": "32",
						"value": "t_uint256"
					},
					"t_uint256": {
						"encoding": "inplace",
						"label": "uint256",
						"numberOfBytes": "32"
					}
				}
			},
			"userdoc": {
				"errors": {
					"CapExceeded(uint256,uint256)": [
						{
							"notice": "El depósito propuesto excede el límite global del banco."
						}
					],
					"DirectETHNotAllowed()": [
						{
							"notice": "No se permiten envíos directos de ETH sin usar la función `deposit`."
						}
					],
					"InsufficientVault(uint256,uint256)": [
						{
							"notice": "El usuario no tiene suficiente saldo en su bóveda."
						}
					],
					"InvalidConstructorParams()": [
						{
							"notice": "Parámetros inválidos en el constructor."
						}
					],
					"NativeTransferFailed()": [
						{
							"notice": "Falló la transferencia nativa (ETH) al destinatario."
						}
					],
					"ThresholdExceeded(uint256,uint256)": [
						{
							"notice": "El monto de retiro excede el umbral fijo por transacción."
						}
					],
					"ZeroAmount()": [
						{
							"notice": "Cantidad cero no permitida."
						}
					]
				},
				"events": {
					"Deposited(address,uint256,uint256,uint256)": {
						"notice": "Emitido cuando un usuario deposita ETH en su bóveda."
					},
					"Withdrawn(address,uint256,uint256,uint256)": {
						"notice": "Emitido cuando un usuario retira ETH de su bóveda."
					}
				},
				"kind": "user",
				"methods": {
					"bankCap()": {
						"notice": "Límite global de ETH (en wei) que puede custodiar el banco."
					},
					"constructor": {
						"notice": "Inicializa el contrato con el límite global de depósitos y el umbral de retiro."
					},
					"deposit()": {
						"notice": "Deposita ETH en la bóveda del `msg.sender`."
					},
					"depositCount()": {
						"notice": "Conteo global de depósitos exitosos."
					},
					"getConfig()": {
						"notice": "Retorna una vista compacta de la configuración inmutable."
					},
					"totalVault()": {
						"notice": "Suma total de ETH (en wei) actualmente custodiada por el contrato."
					},
					"vaultOf(address)": {
						"notice": "Devuelve el saldo de bóveda para una cuenta."
					},
					"withdraw(uint256)": {
						"notice": "Retira `amount` de la bóveda del `msg.sender` hacia su cuenta externa."
					},
					"withdrawThreshold()": {
						"notice": "Umbral máximo (en wei) que puede retirarse por transacción."
					},
					"withdrawalCount()": {
						"notice": "Conteo global de retiros exitosos."
					}
				},
				"notice": "Bóveda simple de tokens nativos (ETH) con umbral fijo de retiro por transacción         y un límite global de depósitos (bankCap).",
				"version": 1
			}
		}
	}
}